:020000040001F9
:10B0000070350020D5B00100EFB00100F1B00100B3
:10B010000000000000000000000000000000000030
:10B02000000000000000000000000000F3B001007C
:10B030000000000000000000F5B00100F7B00100C2
:10B04000A5B50100F9B0010011B70100F9B0010088
:10B05000F9B0010000000000DDB201007DB2010086
:10B06000E1B60100F9B60100F9B00100F9B0010044
:10B07000F9B00100F9B00100F9B00100F9B0010028
:10B08000F9B00100F9B50100F9B00100F9B0010013
:10B0900019B60100F9B0010021B60100F9B00100B4
:10B0A000F9B00100F9B0010000000000000000004C
:10B0B0000000000000000000000000000000000090
:10B0C0000348854600F09CF800480047A1F20100C3
:10B0D000703500200321094802680A4302600848CD
:10B0E00002680A4302600748804707480047FEE7B6
:10B0F000FEE7FEE7FEE7FEE7FEE70000240500406E
:10B100005405004041B60100C1B0010030B50B4606
:10B11000014600202022012409E00D46D5409D4231
:10B1200005D31D469540491B2546954040191546B7
:10B13000521E002DF1DC30BD03460B439B0703D0AC
:10B1400009E008C9121F08C0042AFAD203E00B78EC
:10B150000370401C491C521EF9D27047D2B201E064
:10B160000270401C491EFBD270470022F6E710B562
:10B1700013460A4604461946FFF7F0FF204610BD65
:10B1800030B505462A460B4610781C78521C5B1CCD
:10B19000002801D0A042F7D0002C03D0002802D014
:10B1A0006D1CEFE7284630BDCAB2401E4178401CF6
:10B1B0008A4202D00029F9D100207047421C017850
:10B1C000401C0029FBD1801A704710B5002200E016
:10B1D000521C835C8C5CA34201D1002BF8D1D8B205
:10B1E000E1B2401A10BD30B504460020034600E02D
:10B1F0005B1C934203D2E05CCD5C401BF8D030BDB9
:10B20000064C0125064E05E0E36807CC2B430C3CB9
:10B2100098471034B442F7D3FFF756FF302C0200A2
:10B22000502C020070B58C180578401C6B075B0F22
:10B2300001D10378401C2A1106D10278401C03E09A
:10B2400006780E70401C491C5B1EF9D12B0705D4F3
:10B250000023521E0DD40B70491CFAE70378401CE2
:10B26000CB1A921C03E01D780D70491C5B1C521E0A
:10B27000F9D5A142D8D3002070BD0000FEB5134C13
:10B280000026E0680125124F002810D000F0AAFB2C
:10B2900000280BD00120B86068460670E068019075
:10B2A000217C68460181A57421688847FEBD094854
:10B2B00006600120B8600848066069460D70806825
:10B2C0008880A57468462168EFE70000802B002085
:10B2D000007300400071004000750040F0B500248C
:10B2E000FF268BB00136012527460694304604F030
:10B2F000F7FC002807D054484068284203D0304665
:10B3000004F0E6FC2C43361D6D007F1CB6B2042F02
:10B31000ECD3FF257D35284604F0E2FC002809D057
:10B32000284604F0D5FC6807044306AA0121002042
:10B3300004F0BAFC454D200714D00127002627420F
:10B340000CD04348B200111808690969C004C00E46
:10B350008903AA58890F002A00D090477F00761CE5
:10B36000042EECD3002C6DDA00200890401E63E020
:10B37000281940300778B906890E009100214156FE
:10B38000491C49D009A9009804F0DCF8002843D0F2
:10B39000B8090190009801F0C5FE80002F5801986F
:10B3A000002F02D0032802D00DE0032834D10098EA
:10B3B00008ABC20841079446985C490F01228A40B5
:10B3C00010436246985400980521090780004018F0
:10B3D000072109024018006806A98003800F029027
:10B3E000009804F0AFF80028029802D0022802D09A
:10B3F00012E0032810D10198032808D102980228EE
:10B400001ED00221009804F025FC761CF6B2002F15
:10B4100002D001990098B847641C042CA8D3002ED0
:10B4200010D06A460121002004F03EFC06990098E5
:10B43000884207D00690089800263446099097E77E
:10B440000321DFE70BB0F0BD006300401C290020A2
:10B450000065004030B50146FF3115313CC989B067
:10B46000049205AA38C220393CC903956D461CC513
:10B4700003781439421C498802A000F053F909B03E
:10B4800030BD0000206C656E3A25642C2064617428
:10B49000613A25732020205B25645D25737C25732C
:10B4A0007C25737C25737C2573207C25737C257318
:10B4B0007C25730A0000000030B50446FF341D34BB
:10B4C0002ECC8BB0069107A92CC1203C2ECC02912A
:10B4D00003A92CC11C3CA268616801920091037809
:10B4E000421C61880CA000F01DF91AA16068FFF7EA
:10B4F0006CFE00280ED018A1A068FFF766FE002899
:10B5000008D0164A5068012149030B4683439360D3
:10B510000140D1600BB030BD200D0A206C656E3A41
:10B5200025642C20646174613A25732020205B25FA
:10B53000645D25737C25737C25737C25737C257362
:10B540007C25737C25737C25737C25737C25737C1B
:10B550000D0A0000310000004F4E000000050050B1
:10B560008307FF22DB0E9A408907090E99400028C5
:10B570000BDA0007000F0838830808489B001818EA
:10B58000C36993430B43C3617047830804489B001E
:10B590001B181868904308431860704700ED00E0DE
:10B5A00000E400E0F8B5FF20013003F0D3FF0024F1
:10B5B00001250E4E0E4F002807D00E4804600120D2
:10B5C000B0607D70002001F0EFFDFF20053003F03A
:10B5D000C1FF002808D00748001D04600220B060A9
:10B5E000BD70012001F0E0FDF8BD00000003004047
:10B5F000082900200001004010B50649002008601D
:10B6000048608860C860034940390860486006F0B7
:10B610001DFE10BD4011014010B506F089FD10BDA2
:10B6200010B506484068002805D08047002801D0A2
:10B6300000F000FC10BD03F04DFA10BD50210020B9
:10B6400010B503F0B5FA002805D01F491D48486021
:10B65000C8131E4988611E48018CC9B201290BD14B
:10B66000828C120708D1028D1206120F042A03D110
:10B67000828D1206120F0AD0012921D1818C09076F
:10B680001ED1018D0906090F0A2904D007E0114ACD
:10B6900001219160F5E7828D1206120F05D00D2968
:10B6A0000ED1808D0006000F0AD10B4801680129D8
:10B6B00004D00A49016001680129FCD1C02141611F
:10B6C00010BD0000DFFF07C000050040006C004017
:10B6D000C00F00F00006004000EC0640759300002B
:10B6E00010B504220249034803F034FA10BD0000EB
:10B6F000942B00200080004010B50422024903482A
:10B7000003F028FA10BD0000A02B0020009000409C
:10B7100010B50249024806F0D9FE10BD6429002088
:10B72000002000400FB410B503A9044B044A02984E
:10B7300000F032F810BC08BC04B01847B5DC0100BA
:10B740004C21002030B47446641E2578641CAB4242
:10B7500000D21D46635D5B00E31830BC184702E071
:10B7600008C8121F08C1002AFAD17047704700208C
:10B7700001E001C1121F002AFBD17047202804DA22
:10B78000012181400348014201D00120704700207F
:10B7900070470000FC06FFBCFFB58DB00F460546A4
:10B7A000002606E025280AD0109A0F9990476D1CB4
:10B7B000761C28780028F5D1304611B0F0BD002461
:10B7C0000121674A009400E004436D1C2B78084671
:10B7D000203B98401042F7D128782E2815D104201C
:10B7E000044368786D1C2A280AD101CF6D1C009093
:10B7F0000BE000990A225143303940186D1C00902B
:10B800002878014630390929F3D92878692843D0A6
:10B8100006DC0028D0D063280BD0642804D13BE09C
:10B8200073280FD075284CD0109A0F999047761C2A
:10B8300094E03878694608720020487202A80190A6
:10B84000012003E0386801900020C0433F1D6107DC
:10B850000CD5002400E0641C00998C420FDA84426D
:10B86000F9DB0199095D0029F5D108E0002400E029
:10B87000641C8442FCDB0199095D0029F8D136196A
:10B8800007E0019801990078491C0191109A0F99DD
:10B890009047641EF5D261E00A20019001CF002894
:10B8A00002DA40422D2102E0210504D52B216A460F
:10B8B0001172012103E0E10701D02021F7E70C918B
:10B8C00004E00A20019001CF00210C910BA90B91FB
:10B8D00008E00199FFF71AFC0A460B993032491E1D
:10B8E0000B910A700028F4D10B9803A9081A203094
:10B8F0000190600701D5009801E0012000900199B6
:10B90000884203DD01460198081A00E00020002467
:10B91000009006E002A8109A005D0F999047641C01
:10B92000761C0C988442F5DB04E0109A30200F99C5
:10B930009047761C0099481E00900029F5DC08E02D
:10B940000B980B990078491C0B91109A0F9990470E
:10B95000761C0199481E01900029F1DC6D1C28E736
:10B960000928010010B50B49002003F055FE0028FE
:10B9700001D000F05FFA08481C2201689143183199
:10B98000016003F039FE04480121001F03F002FEAC
:10B9900010BD00009DB90100D820002010B501782D
:10B9A000002915D14068445E012103F0F3FD002811
:10B9B00001D000F03FFA4B2000014443E017800D16
:10B9C000001980124100401881B202A0FFF7AAFEC0
:10B9D00010BD000041542B42415456414C3A25645D
:10B9E0000D0A000070B514490020124B086013497D
:10B9F00008608C681248427CC5685600521CAC53E3
:10BA0000D2B24274047CA24212D2846800226468DA
:10BA1000002C0AD001228460206848600120086060
:10BA2000002A00D01860002070BD44688460F3E7ED
:10BA3000012070BD007000400071004000750040A2
:10BA4000802B002010B500280CD000290AD00278E5
:10BA50000B789A4206D10622401C491CFFF7C3FB13
:10BA6000002801D0002010BD012010BDF7B584B022
:10BA7000064600251788158020300290407B14462A
:10BA8000002806D03A462146059800F025FF05001B
:10BA900009D1B078002823D0059886462088001D5B
:10BAA000B84202D90C2007B0F0BD684679DF002803
:10BAB000F9D1218803207246505420881921401C56
:10BAC00080B22080115420887146401C80B22080B2
:10BAD00041186846008806F0A1FD218840182080A2
:10BAE000F078002817D0218803230A46F356C91C92
:10BAF0000598B942D6D80221815421880122491CD7
:10BB000089B2218042542188491C89B22180435442
:10BB10002088401C20807068002817D021880023CE
:10BB2000C3560A46C91C0598B942BBD802218154A4
:10BB300021880A22491C89B2218042542188491C4B
:10BB400089B2218043542088401C208030890028FD
:10BB50000AD0009430460197062202210830059B46
:10BB600006F0B6FD05009ED1308A00280AD0009468
:10BB700030460197072203211030059B06F0A8FDEF
:10BB8000050090D1308B00280AD0009430460197F0
:10BB9000152214211830059B06F09AFD050082D16C
:10BBA000306A002806D03B462246059901F05EFC2B
:10BBB0000500D8D1706A002806D03B462246059978
:10BBC00003F0EAFB0500CED10298007B002807D0E5
:10BBD0003B4622463046059905F05AFF0500C2D182
:10BBE0003078002807D03B4622463046059903F0BE
:10BBF00007FC0500B7D1284655E70000174A002189
:10BC0000535C002B01D0012203E0491C0629F7D325
:10BC100000221349012806D002280BD0032810D097
:10BC2000042818D112E04878002803D0002A01D057
:10BC3000012070478878002803D0002A01D0022014
:10BC40007047C878002801D0032070470879002881
:10BC500001D00420704700207047000025200020FC
:10BC6000C022002010B517220021012001F088F821
:10BC7000002801D0072812D100211622084601F021
:10BC80007FF8002801D0072809D1182200210220BE
:10BC900001F076F8002801D0072800D1002010BD5F
:10BCA00010B51E49ACB003C92B912A90592120A888
:10BCB00081832AA82990072120A801843C2101A87A
:10BCC000FFF753FA022168460171012484710621AD
:10BCD000C1711348029027A80A903C2110A8FFF7D1
:10BCE00044FA10A804820E482021001D15901FA8B8
:10BCF000FFF73BFA18A8C4770520C0012390002065
:10BD000024900090074B1FAA10A901A800F0FEFA8A
:10BD1000002801D000F08EF82CB010BD54E00100D6
:10BD2000E81F00200FFD0100F0B50F468DB0002187
:10BD300016466D460F24621A825C6A54491C10290B
:10BD4000F9D328460D211030FFF70FFA0020221AF0
:10BD5000395C5219401C11740328F8D368464DDF32
:10BD60000020211A4919203109783154401C032838
:10BD7000F7D30DB0F0BD10B5022000F0ABFE10BD42
:10BD800070B50024064D06E06968E000085C0121FA
:10BD900003F0DCFC641C28788442F5D3002070BDDD
:10BDA000E0200020F8B515460C460646052A01D2CB
:10BDB0000720F8BD03F0A2FD002803D103F070FDB9
:10BDC0000028F6D1104900204E600C70C8608D60CC
:10BDD00008610E4D0DE0E0006968801900918178DE
:10BDE0006A46517000780A4A694603F0FBFC002855
:10BDF000DFD12046641EE4B20028ECD1054A0021C0
:10BE0000024800F04DF8F8BDE0200020E42B0200CD
:10BE1000C5E40100F1D50100BFF34F8F0449034889
:10BE2000C860BFF34F8F00BFFDE700000400FA05B4
:10BE300000ED00E00EB50021029000916A460191EC
:10BE40000148FFF7E9FF0EBD0140000010B5826810
:10BE5000C368934203D001F0B9FE002010BD052055
:10BE600010BD002906D0002A02D0531E134203D071
:10BE7000092070470E207047016083800021816097
:10BE8000C1600846704710B58268C3689A1A8388F3
:10BE90009A4203D801F0A4FE002010BD042010BD7A
:10BEA000094B5B68002B07D0002A07D0002805D07B
:10BEB0000068037C002B03D00820704707207047E0
:10BEC000417442610020704704210020FFB50746FD
:10BED0009007002581B01E461446002825D1002C6D
:10BEE00023D005F041FB3046114EF0603046103053
:10BEF0000570457002998170446075603570012449
:10BF00000C4875702405046003211420FFF728FBFA
:10BF100009480460094CA76003211120FFF720FBAA
:10BF20006068B060002005B0F0BD0720FBE70000AE
:10BF3000F420002080E200E000E100E00015014074
:10BF4000FEB51F4B5B68002B30D000282ED0052992
:10BF500001D20720FEBD4369002B27D0437C012B73
:10BF600026D00027029104460025694616460D702A
:10BF7000684600F0D1F801A806F094FB002819D01B
:10BF8000012101700F49446049688160029907618D
:10BF90004661C16068460A49007948706846007881
:10BFA00000F0D8F806F006F92846FEBD0820FEBDD0
:10BFB0000F46D7E768460425007800F0CBF8F3E792
:10BFC000042100200015014010B5084949680029E6
:10BFD0000AD0002808D04169002905D00021017449
:10BFE000022106F00FF910BD082010BD0421002029
:10BFF00070B50B4D0146AE780A48FFF727FF04469F
:10C00000002E0AD00020A870691C0122C81D03F070
:10C01000BDFC002801D0FFF70DFF204670BD0000D9
:10C020003C210020502D0020F0B5274E89B01F463E
:10C030000D00044672601CD0A888296882B223488B
:10C04000FFF70FFF002815D1A889A96882B21F4801
:10C050001030FFF706FF00280CD120221C4968464B
:10C06000FFF76AF860690690207C002804D001215F
:10C0700003E0072009B0F0BD00216846017507778D
:10C08000607C002800D00E2069464875E068029068
:10C09000A068039020680190606800900A480D4AEB
:10C0A000083003F033FC0028E4D1B0702068401C55
:10C0B000E0D00548083003F097FC03490122491CF1
:10C0C000C81D03F063FCD5E73C210020502D002063
:10C0D000002C0200DD23020010B501460C48FFF7DA
:10C0E000D2FE040012D10B4803F048FD00280DD108
:10C0F000084907480839FFF7A9FE002806D1054975
:10C1000001220839034803F0D9FC0446204610BD3B
:10C11000602D00204421002030B5EFF3108172B66D
:10C12000094A54680123002C04D00370002900D16F
:10C1300062B630BD5360054B1D68054C2540156047
:10C140001C6000220270F1E71821002080E100E06D
:10C15000FC06FFBC08494A68002A0CD000280AD116
:10C16000EFF3108072B60A68044B1A6000224A602E
:10C17000002800D162B670471821002000E100E0DD
:10C18000F8B5074608680C460526411C012536020D
:10C19000002906D02946814019488160206803F0B3
:10C1A0003EFD6068411C02D0002103F02FFD39687C
:10C1B000A06989194862607D217D3A680843911918
:10C1C000C866386806CC80194261C160207B083C93
:10C1D000012814D1A068411C02D0002103F016FDF3
:10C1E000E068411C05D0854005488560E06803F0A3
:10C1F00016FD3A68E1689219A06891601061F8BD77
:10C2000000050050F0B504468BB0008800F000FB3C
:10C210000590208802F0CCFB0646A0680090657A65
:10C22000684605741E4F20880022397800F040FBD4
:10C230000598002831D06079400710D50721304695
:10C2400004F010F9002813D0082269460A742288E5
:10C250004A828E82069004A801F0BAFA08E020888B
:10C26000B97800F013FB002802D0304602F08AFBB8
:10C270000321684601712188C18060794007C10FA0
:10C2800068460172A0794007C10F68464172017883
:10C290008172C57201A801F09BFA0BB0F0BD0000DD
:10C2A00098200020F0B50C4693B01F216A461180FB
:10C2B000072600279180002809D0C17849070DD5AD
:10C2C00002A9FFF7D3FB002809D102AD01E0002548
:10C2D0001780002C0ED0E078002802D0304613B032
:10C2E000F0BD01AA0AA92046FFF7C0FB0028F6D13D
:10C2F0000AAA02E068460022878068468088C3B2A6
:10C3000068460088C1B2284672DFE8E7FFB581B011
:10C310001E460A9F1346040047D0002B45D0504DBF
:10C32000012028700020E870202219464D48FEF7B1
:10C3300003FF00206F61C0432E612881284607213A
:10C340001830FEF712FF47483C212030FEF70DFF62
:10C350004448217820300170A1788170E178C17063
:10C36000617841703F4A65692369556311461363DB
:10C370002031E368A268CB608A603A49E369A26928
:10C38000CB638A63616A00291AD001463C310246B8
:10C39000483241628A60636A1B880B80616A436A23
:10C3A000898899800021436A07E00E2005B0F0BD1E
:10C3B000656AAD686D5C5554491C9D888D42F7D8FF
:10C3C000A16A00291CD0274A943211460C398A6090
:10C3D0008162A36A9B888B80A16A836A098819801D
:10C3E0000021836A04E0A56AAD686D5C5554491C60
:10C3F0009D888D42F7D82C210A5D1A4940310A7375
:10C40000216A002909D016490A310162226A52883C
:10C410004A80216A026A098811806168002900D077
:10C420004160104A0E490020B3322031C3001B1A6C
:10C4300085009B180C68401C63510828F6DB094AEC
:10C440000020EB32030185009B188C68401C63516F
:10C450000828F7DB034802992030FFF723FFA5E700
:10C460000C200020C022002010B50188134C102998
:10C4700015D0112919D01B2910D1007A00280DD10F
:10C48000E0780521401CFEF741FE084600F030F838
:10C49000002803D06169002900D0884710BD817D44
:10C4A0000129FBD18088208110BD00216171808825
:10C4B00021898842F8D10120E8E700000C20002003
:10C4C00010B5022801D003280ED1084C607800284E
:10C4D0000AD000206070E07800F00AF8002803D04D
:10C4E0006169002900D0884710BD00000C200020A1
:10C4F000F1B53F4C88B0207800280AD00898E07049
:10C5000006A801F079FC06980125002804D0657082
:10C510006AE0082009B0F0BD35480027072118302F
:10C52000FEF723FE334E7078002802D0E078012811
:10C5300007D0B07800280CD0E078012801D002287C
:10C5400007D12169002903D025710820884700E020
:10C5500027710898FFF752FBE0702169002909D084
:10C56000032801D0042805D13078002802D0607952
:10C57000002811D0A77118216846FEF7F6FD68461D
:10C5800007700772E1781A480B001830FFF7DAF8E5
:10C59000052E080F191D2000A57107208847EAE71E
:10C5A000A5700190684605704782078213E002215A
:10C5B000A170019068460570B1894182318901827C
:10C5C00009E0684605F0ACFA02E0684605F0D4FAE6
:10C5D000E078002803D0684673DF00289AD12169EB
:10C5E000002901D0A0788847002093E7A770F6E7DC
:10C5F0000C200020C022002070B5054601461C22F8
:10C600000E48FEF799FD0E4C002626702968002979
:10C6100006D00822201DFEF78FFD201D7ADF02E0E4
:10C620000748001D7BDF002807D1401E6080667030
:10C63000044A00210448FFF733FC70BD8C2400201D
:10C640003C20002029260200202B0200F8B5214CB6
:10C650000146028800261E48E589102A13D01E4F85
:10C66000112A1FD0122A2BD0502A1AD1881DC9880E
:10C67000A94216D14189022913D10C3000F0D5F915
:10C6800000280CD112E08A88044642801048082213
:10C690000C301831FEF750FD6670002D01D100F00E
:10C6A0002DFFF8BD0021C943418046703868FFF76F
:10C6B0008BFC0028F5D0A1690029F2D08847F8BD8D
:10C6C000034808220C300831FEF736FDE7E700008A
:10C6D0003C2000208C240020202B020010B50349B0
:10C6E0000A7D091D05F021F810BD0000A8240020D6
:10C6F000034B10B50246D97D181D05F003F810BD97
:10C70000A8240020034B10B50246197E181D04F022
:10C71000F9FF10BDA8240020F0B5044602883A486D
:10C720008DB0014615310191102A09D0112A50D03F
:10C730001A2A4AD1217A090901294ED901234DE04B
:10C74000027D417D05468A43011D07A804F0EDFFE7
:10C75000142207A902A8FEF7EFFC00262A48374654
:10C76000143008900AE0710002A8081883881D227E
:10C770000097281D089904F085FF761C0298B042A6
:10C78000F1D8287DA688C043C0B204F09FFF1F499E
:10C79000884217D040004019868001233246281D68
:10C7A000019904F0E5FF01233246281D089904F0A1
:10C7B000DFFFA07D02280AD000231349A28816318A
:10C7C000281D1DE00420FFF735FB0DB0F0BD01234F
:10C7D000F3E70023A288001D12E000230A49054662
:10C7E000A2881731001D04F0C3FF207A0009022837
:10C7F00001D9012300E000230349A2881831281D34
:10C8000004F0B6FFE1E70000A8240020FFFF0000CD
:10C8100070B50B4E05460024317D2A46301D04F0CC
:10C8200071FF002809D0B17D2A46301D04F06AFF4F
:10C83000002801D0022400E00124204670BD000041
:10C84000A824002010B50024204605F01FFF002872
:10C8500005D0641CE4B2182CF6D3182010BD04488F
:10C8600001220168A24011430160204610BD000072
:10C87000A824002010B5044605F008FF002802D0C7
:10C8800001480019407E10BDA824002070B505465F
:10C890000C46084605F0FAFE002806D003482A4652
:10C8A0000119497E001D04F02DFF70BDA824002051
:10C8B00070B5064615460C46084605F0E7FE00280A
:10C8C00007D004482B4601193246001D193104F0E7
:10C8D0004FFF70BDA82400207CB5054608880C4693
:10C8E0000930904201D90C207CBD684671DF0028D8
:10C8F000FAD121880820685420881B21401C80B26E
:10C9000020802954208800A9401C80B22080401932
:10C9100006220131FEF710FC20886946801D80B296
:10C9200020800978002900D0012129542088401C4A
:10C93000208000207CBD000010B50446FFF7ECFE0F
:10C94000204604F06BFA2046FFF780FE204600F0F8
:10C950004BF9204603F0F8F92046FFF785FD214604
:10C96000014800F031F810BD3822002030B50446EF
:10C97000002085B0C043A0820868124B0D46A0611C
:10C980000FCB03936B4607C321461231684663DF22
:10C99000002815D1A17C68468174A9214901018232
:10C9A000224604A90120A0DF002809D129462046FB
:10C9B00000F02CFB002803D12946204602F02EF976
:10C9C00005B030BDA42B02000A88102A10D0112A0D
:10C9D00010D0502A11D1CA884388891D9A420CD19F
:10C9E0004A89012A09D18269002A06D0097B1047A9
:10C9F000898801E00021C9438182704703B585B071
:10CA000001216A4611820022009201920292039251
:10CA10006A4691704189118006A9039104A9029187
:10CA2000808A6946A6DF07B000BD41780278080217
:10CA30001043C007C00F704700B5174887B00068A3
:10CA4000059000234822154905A805F029FB002878
:10CA500001D0FFF7EFF96A460121002005F008FB3D
:10CA6000002801D0FFF7E6F9684605F0F7FA00283C
:10CA700001D0FFF7DFF90A4805F0E6FA002801D0F7
:10CA8000FFF7D8F9074805F03DFB002801D0FFF774
:10CA9000D1F907B000BD0000F02A0200F02100200B
:10CAA00039C90100212102000149085C70470000DA
:10CAB000F62A02000549095C05480069C840C0071C
:10CAC000C00F00D00120012148407047F62A020023
:10CAD0000005005005490B5C05494A680120984053
:10CAE000034693438B601040C8607047F42A0200ED
:10CAF0000005005010B50349085C002103F0C8F898
:10CB000010BD0000F42A020010B50349085C0121A1
:10CB100003F0BEF810BD0000F42A02000449095CCD
:10CB200004484068C840C007C00F00D001207047CB
:10CB3000F42A0200000500507CB50024074E25466B
:10CB4000305D0122009500231146019503F022F883
:10CB5000641C022CF4D300F003F87CBDF42A02001C
:10CB600010B500242046FFF7C5FF641C022CF9D342
:10CB700010BD10B500242046FFF7C6FF641C022C30
:10CB8000F9D310BD0246002010B5C043054B00216B
:10CB90005C5C944201D1084610BD491C0329F7D3BF
:10CBA00010BD0000F62A020070B50E4E00250C469E
:10CBB000306000290DD0012000F0AEF8002801D02F
:10CBC000022005E0002000F0A7F8002800D00B208C
:10CBD00020707068002802D1FFF744F80546284607
:10CBE00070BD00000420002010B51C4C0188606856
:10CBF00010290DD011290AD1401E606007D1FFF71E
:10CC000031F8002803D02168002900D0884710BDE2
:10CC100000281ED117220021012000F0B1F80028C1
:10CC200001D0072811D100211622084600F0A8F8EB
:10CC3000002801D0072808D118220021022000F086
:10CC40009FF8002805D0072803D02168002900D0CC
:10CC500088476068401C606010BD00000420002010
:10CC600010B5002000F0CAF9002801D0062807D12D
:10CC7000012000F0C3F9002801D0062800D10020CF
:10CC800010BD0000F3B581B00D460198FFF77AFFA3
:10CC90000446032813D21D481D4F1E4E002D27D0D9
:10CCA000012D0DD0022D0AD160002018C019457841
:10CCB000002D04D03169002901D028468847FEBDE7
:10CCC000610061187D5CCF19797800290BD0B168BB
:10CCD0000A2251430F4A8068921CFFF731F900285D
:10CCE00001D10198B0700B48B978C01C0155DFE73D
:10CCF0008068FFF769F9074861006118C01CC9190D
:10CD0000005D8D78A842D3D0FEBD0000FC2A020051
:10CD100094220020F01F002010B5FFF7CBFE10BDBD
:10CD200010B50446014610A0FEF7FCFC0E3C2300A3
:10CD3000FEF708FD0B0A0B0B0A0A0A0A0A070B0B7F
:10CD40000A00012005F056FC10BD01210A48FFF73A
:10CD500055FE0028F8D009498842F5D00828F3D0BC
:10CD6000FFF768F810BD0000656E766E74203D20F8
:10CD700025640D0A00000000382200200230000067
:10CD800070B50023032811D2440004190D4D012A67
:10CD900002D101290DD0002246008019094E8019C8
:10CDA00000290CD0012906D0022906D007231846F5
:10CDB00070BD0E30C2B22A55F9E74270F7E78270B3
:10CDC000F5E700009422002010B5054A0146127BC9
:10CDD0000020D20702D0084600F050F810BD000035
:10CDE000F01F0020F8B506461F480024C660026107
:10CDF00081600F46B00720D5002501221146284644
:10CE0000FFF7BEFF6D1C0446032D02D2002CF4D0A8
:10CE100013E0002C11D17A0803211448FEF7C2FF59
:10CE200004000AD1FEF7ACFF040006D10F48104AF7
:10CE30000021001FFFF734F80446F00701D0FFF788
:10CE40007BFE002C0ED109480A4A00210C38FFF75E
:10CE500027F8040006D10548074A01210838FFF7E2
:10CE60001FF804462046F8BDF01F0020082B0200E2
:10CE7000B5D00100F1EC010077BD0100F8B55D4CC3
:10CE8000054660780026002803D000206070FFF778
:10CE900067FE0120584F2B00FEF754FC18970D0D2C
:10CEA0002E3D4A5F64686F686FA9777777777797C9
:10CEB0009A9DA0A9A9950020FFF730FE00280AD06E
:10CEC0000020FFF717FE022D02D1E120C0000BE089
:10CED0007D20400108E00020FFF716FE022D01D161
:10CEE000C82001E0FF20913025706421FEF70EF983
:10CEF000A168414300222BE00020FFF70FFE00282D
:10CF000005D00020FFF7F6FD19204001ECE70020D6
:10CF1000FFF7FAFDE4E70020FFF700FE002803D04A
:10CF20000020FFF7E7FDD3E70020FFF7EDFDD9E78D
:10CF30000020FFF7F3FD002803D00020FFF7DAFD03
:10CF400002E00020FFF7E0FD2570A068410000220C
:10CF50003868FEF7F5FF064635E00020FFF7BAFD1A
:10CF6000257007E000203FE025702CE06070012074
:10CF7000FFF7B0FD0022A168EAE760700120FFF72B
:10CF8000A9FDA06881004118E1E77868FFF71CF867
:10CF900006461120401B01D0002E03D00220FFF7CF
:10CFA000A9FD10E001280BD9C82148436421FEF7F0
:10CFB000ADF8A168002241437868FEF7C1FF06463C
:10CFC0000220FFF7A1FD3046F8BDFFF7C9FDCBE712
:10CFD000FFF7C6FDC6E7FFF7C3FD04E0FFF7C0FD9E
:10CFE0000020FFF791FD0120FFF78EFDBCE7FFF762
:10CFF000C0FDB9E7F01F0020FC2A020010B5FFF7C2
:10D0000053FD032102F015FE002010BD70B5002471
:10D010000546601C90B00007000F08A91030089466
:10D020000870601C0007000F103048708878F926DF
:10D030003040801C88701C2101A8FEF796F86946D4
:10D0400008791221084369460871029408A80494DB
:10D05000059407940690A87C08A98871144869462D
:10D060008884112000940870002048708878F72187
:10D070003040801C0840EF210840400840006946CD
:10D08000887014210AA8FEF770F809A80A9068466B
:10D090000B900120694608864C8688860E942B46A4
:10D0A00028880A330AAA01A9A2DF10B070BD0000C7
:10D0B0002415000010B500780221FFF7E3FD10BD34
:10D0C0000022D243830004490428CA5002D308181E
:10D0D00020300277704700001C290020F0B50025A1
:10D0E000ED43002A02D00023042601E00423082691
:10D0F0000B4C04E09F00E7597F1C04D05B1CB3423B
:10D10000F8D32846F0BD26185DB2203635709E0053
:10D11000A151002AF5D1E11820310877F1E700008C
:10D120001C290020024909182020085670470000D9
:10D130001C290020002807D00449814204D8044952
:10D14000814201D9012070470020704768210020EA
:10D1500078210020044A0168914201D0083101E0A1
:10D160000149383901607047A82C002070B50D4D79
:10D1700004460A462846AC4208D1FF240134214621
:10D18000104603F009FEA0420AD070BDFF2CFCD867
:10D190002146104603F0F2FD002801D0204670BD64
:10D1A000284670BDFFFF000070B5084C050009D08F
:10D1B00010342168002907D0086820604968284693
:10D1C0008847F6E70834F4E770BD0000082900201E
:10D1D000F0B52C2785B00446002856D02046813073
:10D1E00053D0FF200330005B00284ED02146813110
:10D1F00080220D46601CFDF79FFF284600F0F6FEDA
:10D20000284B6E460FCB0FC669462846FDF7B8FF80
:10D21000060003D06846FDF7D1FF85192846FDF7C3
:10D22000CDFFFF21BA31095D012904D12918203928
:10D23000C97F232929D128182038417F0026232996
:10D2400002D1817F0D2903D0817F232905D007E0FA
:10D25000C17F0A2904D1467709E0C17F0D2903D097
:10D26000C17F232902D002E0867700E0C6770EA0B6
:10D27000E11D009000230A22FD310197284600F0AD
:10D280003DFE0A2801DC002803DC0020C04305B075
:10D29000F0BD401E002801DD207000E02670012056
:10D2A000F5E70000B82B02000D0A0000F0B5EFB062
:10D2B00014460E46054600F099FE1BA12846FDF7D0
:10D2C00084FF00280CD019A12846FDF77EFF002816
:10D2D00008D017A0FEF726FA0020C0436FB0F0BDBB
:10D2E000002500E00625FF27BD3739466846FDF7D3
:10D2F0003CFF002E16D0002C14D0802C12DA3946B8
:10D300006846FDF732FF20A8224631460130FDF77E
:10D3100013FF40A8448068A84576002D02D16846D6
:10D3200000F012F80120D9E7434D00004F4C0000F7
:10D330000D0A20496E746572206E6F204154204D95
:10D340004F44454D0D0A0000F0B585B00446FFF787
:10D350003FFF002807D00320E51DF93503906888BA
:10D36000802802D3002005B0F0BD2046FF30813078
:10D3700000260290124F53380190F0000090395867
:10D380006868FDF722FF002810D10299C885802126
:10D390000198FDF7EAFE0098C0194068002805D002
:10D3A000F000C01941682046884703E00398761CC6
:10D3B0008642E2DBFF21BD312046FDF7D6FED1E7F4
:10D3C000BC200020F8B52348416800293ED00E68F3
:10D3D00021494C6887688078E11B0D022D0AED1CFD
:10D3E000002814D101201D4A000450601B4A403A15
:10D3F00050601B49400008601A4908601A49012022
:10D4000008602F2002F0AEF8124901208870B54262
:10D4100000D23546E81900020F4B000A403318606D
:10D420000D4A5168001B091B0902090A0002000A83
:10D43000C91C814209D9506818602F2002F092F867
:10D4400001200749400480390860F8BD04F08CF8D9
:10D45000F8BD0000F42000200015014040130140F9
:10D4600080E200E000E100E000100140F8B506466F
:10D47000108814468446801D0D46984201D90C2020
:10D48000F8BD32880720062AFAD31927FF01184B66
:10D49000BA4201D99A42F3D171880629F0D3B94230
:10D4A00001D99942ECD19A4203D0994201D08A42E3
:10D4B000E6D805216046295420881221401C80B2FC
:10D4C000208029542088401C80B220804119308857
:10D4D00005F0A4F82188401880B220804119708896
:10D4E00005F09CF82188401820800020F8BD00003D
:10D4F000FFFF000010B5FEF79DFC10BDF8B5164803
:10D5000001F048FB144D00260C3D144C002807D0B8
:10D51000616900291CD001206A461070684616E037
:10D520002878002805D06169002911D06846067066
:10D530000DE0687800280DD0A16809480022006835
:10D54000FEF7FEFC002803D0A169002900D088471F
:10D550002E70F8BD6168F0E7482000208C24002080
:10D56000202B02007FB50C46002802D0012004B019
:10D5700070BD20790026002806D01B4D01281CD044
:10D58000022828D00F20F2E702960396E068019067
:10D59000694601A803F008FF00280AD00298818894
:10D5A000E1800088208169460988029803F076FFAF
:10D5B00000E00A2002212171D9E70C4B6A460021C4
:10D5C000A01D03F0AFFE002807D0084908398E607F
:10D5D000CE600A28CBD12846C9E704488188019843
:10D5E00003F05CFFF5E700001D1D0000282100206E
:10D5F000F8B500260124154D23E06968F0004718AE
:10D60000387821462A698140114218D08A432A611C
:10D6100002F03CF93A782146EB6891401940034604
:10D62000934099420BD17978012901D0012100E082
:10D6300000217B684140002B01D010469847761CA2
:10D64000F6B228788642D8D3F8BD0000E02000204A
:10D6500010B50E4900230A784C78A24212D0521C11
:10D66000D2B20A70022A00D10B700A78074B9200DE
:10D6700018339A580260886810180002000A8860FF
:10D68000012010BD0360002010BD0000F420002028
:10D690003EB5094D38CD0093029501946B465880F4
:10D6A00099809A71054900220978FFF701F96846C7
:10D6B00000F08EF83EBD0000942B02009820002060
:10D6C00010B5047800222300FEF73CF80706050792
:10D6D0000D1D262C06000A7010BD01220A70028959
:10D6E0008A81828814E002220A7002898A818288F3
:10D6F000CA81C2688A60007C062802D000200874B3
:10D7000010BD0120FBE703220A70C2888A810289CA
:10D71000CA81C068886010BD04230B70C0888881EE
:10D72000CA8110BD0520087010BD000070B5064DFF
:10D7300006460024A0002958002901D03046884719
:10D74000641C082CF6D370BDD82B00200EB5002920
:10D7500010D011290ED00022009202926A46508009
:10D7600001910D2907D0862907D009201070104695
:10D7700000F03CF80EBD0B20F8E70A20F6E70000A9
:10D7800001490968084700005820002070B5054D80
:10D7900006460024A000295830468847641C022C05
:10D7A000F8D370BD3C2B0200F8B507460024064EA6
:10D7B000064D04E0A000315838468847641CE878DC
:10D7C0008442F7DBF8BD0000BC2800208820002040
:10D7D00070B5054D06460024A000295830468847FC
:10D7E000641C022CF8D370BD5C2B0200014909684F
:10D7F00008470000A02B02007FB5044640680028BF
:10D800000BD00020039020780026414D0300FDF747
:10D8100099FF066D0606304E7B6D0120F2E7A08968
:10D8200000F0ECF9002804D1E08903F059FE00284B
:10D830005CD0A08900F0DDF9014668464180E089AE
:10D8400003F048FE014668460171207801286068AF
:10D8500007D0002809D0042069460870606803904A
:10D8600020E00028F8D00320F6E70120F4E708467E
:10D870003AE0A08900F0C2F9002804D1E08903F061
:10D880002FFE002832D0A08900F0B3F96946488005
:10D89000E08903F01FFE694608716068002804D023
:10D8A00005200870A0680290E1E70220F9E7A0894E
:10D8B00000F0A4F9002819D0E089002816D1A08929
:10D8C00000F097F969464880E08903F003FEFF20E5
:10D8D00069460871606800280FD0072008706E70D4
:10D8E000AE7002F09BFF684602F054FE6878002894
:10D8F00002D06E7002F092FF7FBD06216846017073
:10D90000408803F019F8EAE7082069460870AEE796
:10D910007420002000B5104987B00978890702D427
:10D92000022007B000BD0D49884201D10420F8E76C
:10D93000052269460A7001220A71C8800022114638
:10D94000684602F08DFA002803D003F0CFFC0020D7
:10D95000E7E70820E5E7000020210020FFFF0000A6
:10D9600000B50F4887B00078800702D4022007B0C6
:10D9700000BD06206946087000221146684602F084
:10D980006FFA002809D007480178002901D0012149
:10D99000017303F0ABFC0020E9E70820E7E7000093
:10D9A00020210020D82C002010B58CB0142168460E
:10D9B000FDF7DBFB1D480078810703D56846FFF7BC
:10D9C000B5FE30E0C0072ED1012000F03DF900F097
:10D9D000BDF901246846047502F0D4FA0300FDF78E
:10D9E000B1FE0C071107111B190A191B1317131B82
:10D9F0000B200CB010BD022000F026F9012000F031
:10DA000009F9DBE7002000E003206946087603E01F
:10DA10000220FAE7684604760022114605A802F0C3
:10DA20001FFA03F063FC0020E3E700002021002040
:10DA300038B5040014D0694603F0B6FC002813D0B2
:10DA4000684600880101094809188889002809D01A
:10DA5000A27A002A06D0401E88810020A07238BD1C
:10DA6000052038BD062038BD0A2038BDB82C00205E
:10DA70001FB501A9684603F055FC04B010BD07B5F9
:10DA800013460A466946002003F04CFC0EBD07B55C
:10DA900013460A460021684603F044FC0EBD0028E8
:10DAA00005D0002903D000680860002070470520D9
:10DAB0007047000038B50D46040017D0002D15D072
:10DAC000694603F071FC002812D06846008861683E
:10DAD0000201084812189089401C908129606068F2
:10DAE0000C3068600120A072002038BD052038BDD0
:10DAF0000A2038BDB82C002010B5002804D003231C
:10DB0000002204F0BFFE10BD052010BD10B5022399
:10DB1000002204F0B7FE10BD10B5002A03D0022386
:10DB200004F0B0FE10BD052010BD000010B5064A7F
:10DB30005178082906D08B00044C491CE0505170E4
:10DB4000002010BD0C2010BD20210020D82B00206B
:10DB500038B504460A480D460078800701D40220F3
:10DB600038BD002C0AD06946284604F09BFF0028E7
:10DB7000F6D1694609882180658038BD052038BD09
:10DB80002021002010B504460E480078800701D4FB
:10DB9000022010BD002C10D0218802290FD80A4A7B
:10DBA0000801801842896088121A032A07D404F0F9
:10DBB0006FFF00202080608010BD052010BD042074
:10DBC00010BD000020210020B82C0020826883882E
:10DBD0001A4003689A5C0A708168491C816070472A
:10DBE000C26883881A4003689954C168491CC1609F
:10DBF000704703218903401A80B2704703218903CB
:10DC0000401A0349884201D801207047002070471C
:10DC1000FE3F000002490A7882430A707047000004
:10DC20002021002010B504460078182802D1FEF704
:10DC300009FE207010BD10B504460078182802D1E6
:10DC4000FEF700FE207010BD02490A7802430A70F8
:10DC5000704700002021002070B5064600200546D0
:10DC6000862906D0112902D0002903D070BD0125D4
:10DC700000E001200E4C002A02460FD061793046A8
:10DC8000FEF716FE2A4621793046FEF711FE0022E5
:10DC900061783046FEF70CFE002204E061783046E1
:10DCA000FEF706FE2A4621783046FEF701FE70BDDB
:10DCB0009C20002010B50446C0B2FEF70DFA2046A5
:10DCC00010BD0000F8B506461C481F4600781546F2
:10DCD0000C46C0070AD03046FFF72CFA002807D0C0
:10DCE000002C07D0A00507D00620F8BD0120F8BD04
:10DCF0000220F8BD0320F8BD3068A04204D8A80275
:10DD000071680019884201D90520F8BD002D10D096
:10DD1000684603F03DFA00280DD000980221C0C0EB
:10DD20000170A101090C8180058103F0EDFA00204A
:10DD3000F8BD0420F8BD0720F8BD00003821002000
:10DD400010B5084603F040FA10BD0000F0B52648B3
:10DD5000264C001B0309264819464069421C03D182
:10DD60000120000740698002224A12789646D207B5
:10DD70000CD00020F0BD1D4C15012C192568002D7C
:10DD800003D06468002C00D0491E521C9A42F2D382
:10DD9000002420E0E2B2002594462A460FE0134E0C
:10DDA0001701BE193768002F02D07768002F05D100
:10DDB000767BAE4202D93546D6B2B446521C9A4260
:10DDC000EDD362461501094AAA185060157BAD02D1
:10DDD000401B641C10608C42DCD306487146012253
:10DDE00011430170C5E70000782100206821002060
:10DDF0000010001038210020002804D00349496E8B
:10DE0000016000207047032070470000E82C0020CC
:10DE1000F8B507461E481E46007815460C46C00752
:10DE20000ED03846FFF786F900280BD0002D0BD016
:10DE3000002C09D028462043800707D00620F8BDD3
:10DE40000120F8BD0220F8BD0320F8BD3868A042CB
:10DE500004D8B10078680919884201D20520F8BDBC
:10DE6000002E11D0684603F093F900280ED00098D8
:10DE700006990760416001210172C56004618682D4
:10DE800003F042FA0020F8BD0420F8BD0720F8BDD9
:10DE90003821002070B5174B0446186E18214843EE
:10DEA0001549C0180A78950715D5022C02D0032C05
:10DEB0001CD102E001F0AAFF18E04A78521CD2B24D
:10DEC0004A70032A12D900224A70082103F022FD69
:10DED00003F048F90AE0500708D5FB2002400A7019
:10DEE000586E002802D0022002430A7003F0C8F9DD
:10DEF00070BD0000E82C002038210020FFB500266E
:10DF000081B0054634460096002807D002980028C4
:10DF100004D02846FDF752F9074656E00020C043DA
:10DF200005B0F0BD0098002823D1297804988142DB
:10DF300001D0002847D1012000900398844202DBE1
:10DF40000120C043ECE70498002809D069780B98B9
:10DF5000814209D12448A20041680298815007E01B
:10DF60000298A100455003E0681C0299A200885065
:10DF7000641C29780A98FDF717F9002802D00020C0
:10DF8000287024E029780B9881421CD10020287049
:10DF90000398844202DB0220C043C1E769780A98F3
:10DFA000FDF702F9002803D169780B98814205D169
:10DFB0000D48A10042680298425003E0681C029993
:10DFC000A2008850641C6D1C761CBE42AADB064968
:10DFD0002046496803E08300029A401CD150039A0E
:10DFE0009042F8DB20469BE7B420002006E00A467A
:10DFF000613A192A01D820390170401C01780029A2
:10E00000F5D170470EB5112069460872062211A19C
:10E0100002A87CDF002801D0FDF70CFF0020009053
:10E020005022694601900A80A0224A808880FF2001
:10E030009130C88068467ADF002801D0FDF7FAFEEB
:10E0400006490020085677DF002801D0FDF7F2FED0
:10E050000EBD00004D584E3030330000E81F002048
:10E0600070B5002801D0012070BD164C0025207B22
:10E07000002801D0257301E000F09CF8207803000F
:10E08000FDF760FB081E05080B0E1E111A1E00F09E
:10E090001BF870BD00F07EF870BD00F061F870BD37
:10E0A00000F038F870BD608806490001203940183A
:10E0B000406801F047FF70BD656001F051FF70BD21
:10E0C0000F2070BDD82C002070B5104900208A1C8C
:10E0D0000D460346203D0C18A67A002E08D0A372E8
:10E0E00004016419A689002E02D1A47B012C08D05A
:10E0F000401C80B20228EED30B704B8004484B606A
:10E1000070BD108000F046F870BD0000D82C0020D3
:10E110001D1D000010B50F4C6088010120462038FD
:10E120000818818900290BD0052020700A48022197
:10E1300081800168002301220848FFF7C3FD10BD5C
:10E140004168002301220548FFF7BCFD042121702E
:10E1500010BD0000D82C00203021002068210020B4
:10E1600038B50A4908480B688988426889005918F7
:10E170005388032404700020DB1C00909BB20448E9
:10E18000FFF746FE38BD0000D82C002030210020CB
:10E190006821002010B506494888091D03F054F98C
:10E1A000002802D0FFF7DCFF10BDFFF7B3FF10BD62
:10E1B000D82C0020F0B51D481D49077802460125DE
:10E1C00002268C88203A3B00FDF7BCFA0805171799
:10E1D0001A212C2C16170189491C0181002141802C
:10E1E00001730B01D35C002B08D000234418491C99
:10E1F00089B2A3720229F4D30570F0BD0123F5E7BB
:10E2000042685288D21CA2188A800670F0BD4588E8
:10E210000B682D01AA1855680D60536014818E801B
:10E22000062100E007210170F0BD0000D82C00207D
:10E2300030210020F0B504460088384D8DB05028BC
:10E240001DD0522802D0542826D103E0A08800F027
:10E2500095FF21E0062069460870A08800F0A8FB21
:10E2600069464880A2888A8000F054F9A08800227C
:10E27000E978FEF71DFB6846FFF782FA0CE0207B89
:10E28000012809D1A07A012806D120892449884291
:10E2900002D1A08800F0AEFFA878FEF7EBFA0028C4
:10E2A00019D008A8FEF71AFA142208A903A8FCF747
:10E2B00043FF002403AE0BE060008719B888A978FB
:10E2C000FEF7E4FA002802D0B88800F057FF641C7B
:10E2D0000398A042F0D86878FEF7CCFA002819D04D
:10E2E00008A8FEF7FBF9142208A903A8FCF724FFED
:10E2F000002403AE0BE060008719B8886978FEF748
:10E30000C5FA002802D0B88800F074FF641C039896
:10E31000A042F0D803F022FB0DB0F0BD5020002049
:10E32000022900003EB504464088694648802078AE
:10E33000002814D001281DD002280FD120790028F0
:10E340000CD0608800F068FA0E49884206D00E4969
:10E350000122C978FEF7ACFA03F000FB3EBD0020B5
:10E3600008700846FFF70CFA608800F055FA00F0D4
:10E3700005FF3EBD012168460170A1888180FFF73D
:10E38000FFF93EBDFFFF00005020002010B50446FD
:10E39000007801280DD1608800F0F0FE608800F060
:10E3A0007FF9002805D0034960880122C978FEF76B
:10E3B0007FFA10BD5020002010B5104C00202070B6
:10E3C000FEF740FA6070FEF73DFAA070FEF73AFAE9
:10E3D000E070FEF737FA2071617818290BD0A17828
:10E3E000182908D0E178182905D0182803D0012071
:10E3F0002070002010BD032010BD00005020002020
:10E40000F0B585B000F09EF86846FEF767F9002485
:10E410006D460C4F0EE060004619B08800F0C8FA57
:10E42000B84205D10849B0880122C978FEF740FA00
:10E43000641CA4B20098A042EDD803F08FFA05B096
:10E44000F0BD0000FFFF00005020002010B5017853
:10E45000072902D1408800F0CDFE10BD10B504465A
:10E460000A4841782046FEF711FA00280CD00848E7
:10E4700000210C224A4312185288A24201D1C8B28C
:10E4800010BD491C0829F4D3FF2010BD68200020CE
:10E49000DC24002070B5094D094E00240C20604397
:10E4A000401940887178FEF7F1F9002804D0641C07
:10E4B000082CF3D3FF2070BDE0B270BDDC24002037
:10E4C00068200020F8B50746104E0125BD40306891
:10E4D000FDF77AFD00280DD10D4C2069284207D1A7
:10E4E000384601F0D3F90028E06804D0284303E05F
:10E4F000A8432061F8BDA843E060206900222843BA
:10E500002061A1683068FDF71BFDF8BDE42B020017
:10E51000E02000201CB5054A9168D2680192009164
:10E520000022694601F0FEFE1CBD0000282B0200FF
:10E5300003480021C94381800121017000207047F8
:10E540005C20002010B5044801F020FE03498880BB
:10E5500003F030FA10BD0000FFFF00005C20002037
:10E56000F1B582B0029800F023FA00241649032581
:10E5700001272646884209D06A46082101F0A8FEF4
:10E58000002803D1019886880568841D2B463246F1
:10E5900021460298A9DF042804D0082804D00B28BB
:10E5A00007D002E0112000E00020002F00D10B2056
:10E5B000FEBD0027A80701D50125E7E73443F6D0C3
:10E5C000002426460325E1E7FFFF0000F1B582B0F5
:10E5D000029800F0EDF907461B48874201D11B481D
:10E5E000FEBD01252A466D1C0026ADB26B460821F2
:10E5F000384601F09DFE040002D0072C21D021E016
:10E60000019903230B600A1D891D0298AADF0400EB
:10E6100004D00C2C08D0052C08D008E0082138467E
:10E6200001F020FF04460DE0012600E0002408214F
:10E63000384601F001FF002800D00324002ED1D17C
:10E6400000E00C242046FEBDFFFF00000230000069
:10E650001FB504460078012815D12079012812D170
:10E66000608802AA012101F033FE00280BD10221AB
:10E67000684601706188418003980178684601719D
:10E680000549096888470448044908388088884251
:10E6900001D003F08FF91FBD64200020FFFF0000B0
:10E6A0001CB500F085F96A46012101F011FE002831
:10E6B00001D000201CBD019800781CBDF8B5074EA4
:10E6C000074C084D0746324661883846A7DFA84206
:10E6D00003D16088401C6080F5E7F8BDFFFF0000B3
:10E6E0005C200020033000008188054A914204D05C
:10E6F0000088002801D001207047002070470000EA
:10E70000FFFF00003EB5044600780D46022815D1F3
:10E710000322611C6846FCF70FFD0322211D02A89D
:10E72000FCF70AFD01AA02A92846FDF7FDFA03221B
:10E7300001A96846FCF757FD002801D000203EBD26
:10E7400001203EBD10B50C46FFF788FEFF280AD019
:10E750000C2148430549072241182046091DFCF7B2
:10E76000EBFC002010BD052010BD0000DC240020C3
:10E7700070B5018890B0102949D1011D2C2202A842
:10E78000FCF7DAFC6846234E007B344602AD0328D2
:10E790002AD001F06FFF6846007B00280ED00128C8
:10E7A0000CD0022820D118E00E99281D1131FDF758
:10E7B00049F9002802D06846048815E00DAA694688
:10E7C000072001F02DFF0028EED10DE00E99281D45
:10E7D000491CFFF797FF0028EDD10DAA69460720D5
:10E7E00001F01EFF0028F1D168460089291D00F0C4
:10E7F00057FEB4420BD068460089214600F086F8E7
:10E8000068460189418001210170FEF7BFFF10B009
:10E8100070BD0000FFFF0000084A00210C234B439D
:10E82000D35A834204D10C20414388184088704752
:10E83000491C0829F2D3024870470000DC2400205C
:10E84000FFFF000010B50E4C182060700D4A0E49F5
:10E8500000200C2343435B18401C5A800828F8D33F
:10E86000FDF7F0FF6070182804D00548C01C71DF68
:10E87000002801D0032010BD01202070002010BD11
:10E8800068200020FFFF0000DC24002070B5044653
:10E890000D46401C00F0B0F9002810D01022691C71
:10E8A000601CFCF7A0FC00280AD000262946204660
:10E8B00011311130FDF7C6F801463046084370BDEE
:10E8C0000126F3E70188002903D142189278002A33
:10E8D00001D001207047491C0829F6D30020704759
:10E8E00010B50C460346FFF7EDFF00280BD0188843
:10E8F0002188884206D10822A11C981CFCF773FCD1
:10E90000002801D0002010BD012010BD10B502F07C
:10E910006FF810BD10B50446007888B0002826D1E5
:10E920002079072823D1608801AA072101F0D0FCB3
:10E9300000281CD101F09EFE1BE069466088098812
:10E94000884216D004990298FFF7A0FF002810D043
:10E950006088FFF761FF01466846C18200210175AA
:10E96000618801830188418305A8FEF70FFF08B085
:10E9700010BD03AA6946072001F052FE0028DCD131
:10E98000F5E7000070B50446FFF746FF0546204650
:10E9900001F0A3FC054904468D4204D0002C02D1AD
:10E9A000284602F025F8204670BD0000FFFF000059
:10E9B00010B5FFF753FDFF2804D00C21484302494E
:10E9C000085A10BD014810BDDC240020FFFF0000E4
:10E9D0003EB5044601F04EFE10E001992046463156
:10E9E000FFF77EFF002806D1019920462A31FFF764
:10E9F00077FF002802D0684600893EBD6A4602A91A
:10EA0000072001F00DFE0028E7D101483EBD0000BF
:10EA1000FFFF0000F8B50F46002804D00120FFF7E3
:10EA2000F9F80120F8BD397900290AD00026254DD2
:10EA300001290BD0244C022920681FD003293BD187
:10EA400025E001F08DFA0121397133E00020010148
:10EA5000695C02290BD0401C80B20228F7D3022047
:10EA6000FFF7F2F80120FFF7D5F81848F8BD0401C8
:10EA70006019406801F066FA2E551BE0014600233C
:10EA800001221348FFF71EF90221A18011E001F0D5
:10EA900059FA0C492368203149880A01094951185B
:10EAA0004D6825604B60A3880B810221A180054938
:10EAB0008E543E710028D9D00120FFF7ABF80E200C
:10EAC000F8BD0000B82C0020302100201D1D0000E2
:10EAD00068210020F8B51E4C2078002836D0E06868
:10EAE000002600280CD00025607800282ED168462A
:10EAF00052DF052806D0002806D0FDF79BF90BE071
:10EB00000125F1E7012607E0009800F0E9FD216901
:10EB1000002901D000988847002D13D16078002883
:10EB200014D1608869460880A06861DF052804D098
:10EB3000002804D0FDF77EF904E0012502E0E16839
:10EB4000A0688847002ECFD0002DE5D0F8BD00008A
:10EB500050210020F7B50025164604462F4616E042
:10EB6000A80001210904A940FF3041302258002AA1
:10EB70000BD003221202A21852680A4205D0275075
:10EB8000019A01991268496890476D1CEDB2B5422F
:10EB9000E6D3FEBD418805480288914204D34088EF
:10EBA000814201D80120704700207047402000209A
:10EBB0001048018CC9B2012917D1818C090714D1E1
:10EBC000018D09060A0F03D1828D1206120F0ED095
:10EBD000090F012903D1828D1206120F07D00329D4
:10EBE00003D1808D0006000F01D000207047012066
:10EBF00070470000C00F00F00021425C002A01D0E5
:10EC000001207047491C1029F7D300207047800766
:10EC100001D00020704701207047000030B58FB050
:10EC200005461C216846FCF7A0FA694608780A21C7
:10EC300008436946087000240194039404940594E1
:10EC40000694A87C08A98870154869460884601C49
:10EC50000007000F10300794087711204877887F4D
:10EC6000F9210840F721801C0840EF2108404008A6
:10EC7000400069468877142109A8FCF776FA08A8AD
:10EC8000099007A80A90012069468885CC850886E6
:10EC90000D942888AB1C09AAA2DF0FB030BD00007C
:10ECA0002515000010B50B00FCF74CFD070B050700
:10ECB0000C0E12150B00002100E00121122000F0C3
:10ECC000DBFF10BD012000E0002003F093FC10BD2D
:10ECD00003F022FA10BD02A0FCF724FD10BD0000D5
:10ECE00041542B4D4F443D4F50454E0D0A000000FE
:10ECF00010B50448017BC90702D00078FEF7BEF8C2
:10ED000010BD0000F01F0020FFB5244D81B0287A0F
:10ED10001F460E46084304D0039A002E04D000215B
:10ED200004E0052005B0F0BD1C491031019803F046
:10ED30008DF80446014600220198FEF78DFF002F52
:10ED400003D021460198FEF701FD112C0FD006DCFF
:10ED5000002C0AD0082C08D00D2C05D105E0862CFB
:10ED600011D00F48C44200D003242046DAE73246CF
:10ED7000E9780198FDF79CFDA978039A0198FDF7C1
:10ED800097FD0024F1E73246E9780198FDF790FD00
:10ED9000A978039A0198FDF78BFDE6E79C200020F7
:10EDA000FECFFFFFFEB517460C00064604D02078C4
:10EDB000C00704D0012003E000217EDFFEBD022059
:10EDC000694608713046FFF7F3FD1749054688424A
:10EDD00008D001A800902B463A462146304600F064
:10EDE00025F806E020782146C007304603D000F021
:10EDF00081F804460BE07EDF044600200090002CE2
:10EE000008D0002201232946304602F04FFD002C95
:10EE100002D006E00122F5E768460179304602F0AB
:10EE20006BFD2046FEBD0000FFFF0000FFB585B072
:10EE300000252E4601AA07210E9F089801F048FAE6
:10EE4000040008D1029D4420405D1835C607F60F26
:10EE500001D0029D34350798204312D1002D10D0E7
:10EE6000002E05D128461230FFF72CFD002808D0CF
:10EE700029462A461231059885DF0446002038705D
:10EE800023E0002C01D0052C1FD106980078C00784
:10EE90000DD003AB01220721089801F049FA0400C4
:10EEA0000AD10721089801F041FB040004D106991A
:10EEB00005987EDF040008D00721089801F0BCFA0D
:10EEC000002802D0052800D00324002000903878C4
:10EED000002801D0012300E00023002C07D00022ED
:10EEE0000899059802F0E2FC204609B0F0BD012225
:10EEF000F6E70000FEB50F46064601F0E5F90546C7
:10EF00001848854220D001AB01220721284601F094
:10EF10000FFA04000AD10721284601F007FB04007C
:10EF200004D1394630467EDF040008D00721284648
:10EF300001F082FA002802D0052800D00324012025
:10EF40000090002C0BD002E003240020009000224F
:10EF500001232946304602F0A9FC2046FEBD0122CD
:10EF6000F6E70000FFFF0000F7B5114D0F4616460B
:10EF700029780098FDF78AFC002812D00098FFF746
:10EF800017FD04460B4884420BD069780098FDF7C2
:10EF90007DFC002806D033463A462146009801F011
:10EFA00069F8FEBD324639460098FEF771FBFEBD9A
:10EFB00098200020FFFF0000F1B586B00698FDF70D
:10EFC00059FC002821D06846FDF788FB00246E46D6
:10EFD00018E060008519A8880699FDF757FC0028FD
:10EFE0000FD00B4FA888B978FDF750FC0590A88882
:10EFF000F978FDF74BFC0146A8880123059AFFF735
:10F0000083FE641C0098A042E3D807B0F0BD000066
:10F010009C200020F0B5284C2146103948688B68A8
:10F02000227886469C46CF78667836E0182353438C
:10F030006168521CC918A378D2B2934200D1002251
:10F040000B78022B02D0032B27D123E003464D6817
:10F05000194603E0A94204D00B46C96900291CD017
:10F06000F8E7002919D08B4208D1C069002805D1E2
:10F07000124F0125BD600025AC4601270D68C96906
:10F08000D961002909D00B685B190B6005E0017498
:10F09000C06900E000210028F9D19642C6D1064996
:10F0A000624610398A604860CF70704501D00120F7
:10F0B000F0BD0020F0BD0000042100200010014040
:10F0C000F8B52C4E044670680025009041E0002CF5
:10F0D00002D02046E46920E0264818231030017849
:10F0E00042684B43491CC9B2D218017083789942D7
:10F0F00000D105701178506801292CD1017C0029BC
:10F1000029D191684160D16881601169C1605169FC
:10F110008161F178002900D045604368B268164FDC
:10F12000991A0902090AB94202D28268891806E0CE
:10F13000D11A09028268090A8A4202D9511A016069
:10F1400000E005604560012185600174C56103F040
:10F1500039F8002CBBD10748103001784078814243
:10F16000BAD171680098814201D00120F8BD002019
:10F17000F8BD0000F4200020FFFF7F00FEB504462C
:10F180001948002684422DD02046FFF7E9F90500F2
:10F1900012D00B2D14D0112D10D01448C5421BD005
:10F1A0000921684601702046FFF702FC01466846C7
:10F1B0004180848002950DE0022102E001260BE0EF
:10F1C0000321684601702046FFF7F2FB01466846BE
:10F1D00041808480FEF7D4FA054832468178204683
:10F1E000FDF766FBFEBD0000FFFF0000FECFFFFF46
:10F1F00050200020FEB504460026FFF7E7F905463B
:10F20000112818D004DC002D13D00C2D05D114E0EA
:10F21000862D25D01348C5421BD0092168460170B0
:10F220002046FFF7C5FB0146684641808480029571
:10F230000DE0012102E001260BE007216846017084
:10F2400084802046FFF7B4FB014668464180FEF704
:10F2500097FA0548324641782046FDF729FBFEBD66
:10F260000821EBE7FECFFFFF50200020F8B5054650
:10F2700000780C46002620420FD100206946087015
:10F280006846FCF749FF2878204202D120432870C5
:10F29000012668460078FCF75DFF3046F8BD0000A7
:10F2A0000325364888B0002405600121122000F0B3
:10F2B000E3FCFCF757FB03F0E5F8002003F09AF9B4
:10F2C00000232F4A05211846FCF700FE002801D034
:10F2D000FCF7B0FD2B4A2C490320FDF783FD0028E5
:10F2E00001D0FCF7A7FD01A90020FDF75DFC002877
:10F2F00001D0FCF79FFD68460079022835D0002137
:10F3000068460170FDF798FB6846007801F084FBC1
:10F31000FEF778FEFCF7C4FC1C48009018486946CC
:10F32000C030FDF723FB002801D0FCF783FD1C2132
:10F330006846FBF71AFF0520C00301900F20000468
:10F340000290009468460573C481047410480590C7
:10F35000104806906846FDF74FF9002801D0FCF7E9
:10F3600069FD0320FDF7C4F802E00121C8E748DF8A
:10F370000028FCD0FCF75EFDF9E7000048070050CC
:10F380007821002021CD0100CD0C0000A5EC01006A
:10F39000EDFD0100F5D4010070B5144682880E46DB
:10F3A00005462088111D4118921C994201D8FE2A59
:10F3B00001D90C2070BD521C32542088FF21401C02
:10F3C00080B2208031542088401C80B22080811976
:10F3D000288803F023F92188401880B22080AA8869
:10F3E000002A09D0A968002908D08019FBF7A4FEDB
:10F3F0002088A98840182080002070BD072070BD9B
:10F40000F8B50F46017814460546012902D16878FF
:10F41000002806D02088821C9A422DD8012902D0CB
:10F4200006E00720F8BD69784118891C994223D865
:10F43000181A801E86B2684606802188B81C0818F3
:10F4400069467DDF0028EDD12878022805D169467C
:10F450000988B14201D809210AE00821012805D113
:10F460006878B04202D86A46108001E0684606809B
:10F4700068460088FE2801D90C20F8BD2288401C6F
:10F48000B8542088401C80B22080395420886946B6
:10F49000401C20800988401820800020F8BD000012
:10F4A000F8B5FF240F46054600291FD0104EB5427F
:10F4B0001CD01048012241782846FDF7F9F928466A
:10F4C000FEF7CCFF0446FF2804D1FEF7E3FF044615
:10F4D000FF280BD00C2148430749024640184580BD
:10F4E0008E5207223946001DFBF726FE2046F8BD46
:10F4F000FFFF000068200020DC24002070B50B4DC9
:10F500000E46A84201D1002000E0401C84B209E070
:10F510002146304601F05AFC002801D0204670BD3B
:10F52000641CA4B2FF2CF3D9284670BDFFFF000075
:10F53000034940180068002800D0012070470000EF
:10F5400000700040C20843075B0F0120895C9840AF
:10F55000084070470121890740180068002800D042
:10F560000120704700280FD00849094A096800BFE8
:10F5700000BF00BF00BF00BF00BF00BF00BF91427F
:10F5800000D000BF0138F2D1704700006421002094
:10F590000024F40070B5144CA27C022A16D002227A
:10F5A000A2746268A260217400216174E0600F4857
:10F5B000126842600E4A86151160012505602068B8
:10F5C000002805D00B49012048600BE0112070BDD8
:10F5D0003046FFF7ADFF0028FAD0FCF703FA002809
:10F5E000F6D0A574002070BD802B0020007500406F
:10F5F00000710040007300400021064A41605168DC
:10F60000002902D15060704711464A68002AFBD198
:10F6100048607047802B002070B50C4D0C46A97CCB
:10F62000002901D0082070BD094A00211160002C7A
:10F6300006D0002800D107480178072000F056F8CE
:10F6400001202C60A874002070BD0000802B0020D9
:10F6500000710040E02B0200014901200860704762
:10F660000070004070B50E4C00252078002801D0B5
:10F67000852513E00021A16061602161E1600948F6
:10F6800000680126304002D1032100F02FF802F07B
:10F6900033FD002801D1044886612670284670BDDC
:10F6A0000829002000E100E00005004038B50020F6
:10F6B000694608706846FCF72FFD084C2078002842
:10F6C00001D1FFF7CFFFE068401CE0600120A0708F
:10F6D00068460078FCF73EFD38BD00000829002090
:10F6E00010B5002801D1FDF75FFD10BD8207D30ED4
:10F6F000FF229A408907090E10B5994000280BDABD
:10F7000003071B0F083B9C080C4BA400E318DC69A3
:10F7100094430C43DC6107E08408094BA400E4181F
:10F72000236893430B432360C106C90E0120884020
:10F73000044908600449086010BD000000ED00E0C5
:10F7400000E400E080E200E000E100E0F3B581B019
:10F75000054601F09DF91F4F0028284617D0FDF7F8
:10F76000E1FCC0192030007F8009032802D0012865
:10F770000BD005E018480069E840C007C00F04D06E
:10F780000321284600F066FAFEBD0221F9E701F0E8
:10F790008BF90028F8D02846FDF7C4FC0446800009
:10F7A000C11D0E4AF9318018026989B2012632431F
:10F7B0000261084600F08CFA02980028E4D028463E
:10F7C000FDF7B0FC800038580028DDD00448A64082
:10F7D0004660FEBD1C290020000500500065004069
:10F7E00000630040FEB5044625480E46001920215E
:10F7F00041560027C8171346401C01D008273CE09B
:10F80000F27819462046FDF769FC0546401C33D0C6
:10F81000B07800280BD005200007A10009180720A8
:10F8200000020918086802229043086007E00021DE
:10F830007378204600910A46019100F0BFF9F078F4
:10F84000002810D00F48AA001018317802690E4B1A
:10F850001A400261E206D20C8907890B0A4301694A
:10F860000A43026109E00648327840192030017FDE
:10F8700092011143017700E004273846FEBD0000E5
:10F880001C29002000650040FFE0FCFF03490969D6
:10F89000C140C807C00F00D00120704700050050CC
:10F8A00070B5144D2879002801D0082070BD114989
:10F8B00000204039421E0B182033401CC0B21A7081
:10F8C0002028F8D300242046FDF7FAFB641CE4B29C
:10F8D000082CF8D303210620FFF708FFFF207D3016
:10F8E00000F0F6F901200449C007486001202871A2
:10F8F000002070BD5C2900200063004002480079B0
:10F90000002800D0012070475C290020F8B5064689
:10F910000F4600791C2148431A4915464418E07ED9
:10F92000002801D00820F8BD39463046FCF728FCF5
:10F9300065603869206028460025002813D0FF2222
:10F940003068397F1D328550FF223068453285503E
:10F95000032330681B020C4AC01842603068000B59
:10F9600040B2FFF7C3FE052230680421120280185E
:10F970000160E5752576A5750121E1762846A57615
:10F98000F8BD00006429002080000200F8B503796A
:10F990001C246343134C81251C190327666800232C
:10F9A000AD003F02002E02D00668F619B560E67D74
:10F9B000002E0ED0237E002B07D06168002902D0D4
:10F9C0000068C01945601120F8BD2161012322762D
:10F9D00004E0E2750025E1606576257600F01AF80E
:10F9E000F8BD00006429002070B5044600791C2190
:10F9F000074D48434019807E002808D1204601F079
:10FA0000F2FD20791C22012150434019817670BDFE
:10FA100064290020F8B5044600791C214843264992
:10FA20004518A87E184302D1204601F0DCFD686825
:10FA3000002808D081210322206889001202801842
:10FA400041600020F8BDFF204530216800220A50A7
:10FA5000FF212531206800F04DF90646FF210931CC
:10FA6000206800F047F90090FF214531206800F040
:10FA700041F90746009838433043E9D030463843CF
:10FA800007D12946206801F091FDE87D697E884212
:10FA9000DED80020E875002E01D00320F8BD002F2D
:10FAA00001D00F20F8BDA97E01200029216801D0D6
:10FAB0000860C6E74860C4E76429002070B50546C1
:10FAC0000C4600791C21484308494318284600F099
:10FAD00055F8002801D0112070BD9A7500209C6057
:10FAE0009882284600F004F870BD000064290020C8
:10FAF000F8B5044600791C2148431F4900264518E3
:10FB0000FF2720681D37C6512068012181602946E2
:10FB1000206802F0DBFB6968002913D027E0FF278B
:10FB20000137FF211D31206800F0E4F8002802D1E0
:10FB3000A88AB842F5D1A88AB84203D029462068DD
:10FB400002F0C4FBA88AA97D8842E8D3A98AC81F0D
:10FB5000F9380ED0FF271D373946206800F0CAF863
:10FB60000028F9D020680121C1600020A875304626
:10FB7000F8BD0F26F9E700006429002000791C2158
:10FB8000484303494018807D002800D00120704779
:10FB90006429002070B552000A439900049D0A436D
:10FBA0002902059E0A43310405240A4324078000E4
:10FBB0000721001909024018026070BD70B552009B
:10FBC0000A439900049D0A432902059E0A43310411
:10FBD00005240A4324078000072100190902401860
:10FBE000026070BD70B552000A439900049D0A433B
:10FBF0002902059E0A43310405240A432407800094
:10FC00000721001909024018026070BD1CB50022CE
:10FC10000B46009211460192FFF7E4FF1CBD1CB594
:10FC2000002100910B46012201911146FFF7DAFFF6
:10FC30001CBD052212078000821807200002101840
:10FC4000026803231B049A430260026809040A4302
:10FC50000260704705221207800082180720000208
:10FC60001018026803231B049A4302600268090407
:10FC70000A430260704700000122824003480029C5
:10FC800001D082607047C2607047000000050050DC
:10FC9000012282400348002901D082607047C2607F
:10FCA000704700000005005038B5084B05241B685C
:10FCB000009324026B46411805E085005D592D191B
:10FCC0002D69401C20C28142F7D838BDB42B0200F8
:10FCD00002494018002101607047000000600040A8
:10FCE000034940180068012800D000207047000038
:10FCF000006000404058002800D0012070470322D7
:10FD0000120280184068084000D00120704710B5EA
:10FD1000002808D0032805D10220FDF755F810E08F
:10FD2000FCF788F810BD0020FDF74EF8002801D040
:10FD3000FCF780F8FCF794FF002801D0FCF77AF874
:10FD40003CDF0028ECD110BD10B50446008888B017
:10FD50003A2821D009DC022824D0102811D01128FB
:10FD60000DD10020FDF730F819E051281ED055289C
:10FD700005D1A088132176DF11E0FCF75BF808B00D
:10FD800010BD0720FDF720F8002801D0FCF752F83D
:10FD90001549A0884880F2E7A088132176DF002863
:10FDA000EBD1ECE7A088002167DFF8E71022A11D66
:10FDB00004A8FBF7C1F96846017C0029DFD0007E6A
:10FDC000042803D0062801D00528D8D1022908D05C
:10FDD000012069460870FF2083308880A088A8DF52
:10FDE000DDE70220F5E70000E81F002010B50078ED
:10FDF000002807D104483B21408876DF002801D045
:10FE0000FCF718F810BD0000E81F002010B5134AD9
:10FE100000215170017A012911D002290ED1818966
:10FE2000491C8181C189491C89B2C181028A9142E0
:10FE300004D1002101F06EFD01F094F910BD838A18
:10FE4000C28A991AFF2901DC89B201E0FF21013140
:10FE5000511889B2C1829942EBD010BD38210020DF
:10FE6000F7B51C4D0E4601466A6F002082B0032A8A
:10FE70002DD82C4678340827636CBF1BBB4226D88C
:10FE8000286F10188007800F1C2250434019FBF781
:10FE900053F9686F401C6867002E17D0216C606CA6
:10FEA00040184007800E00190023009009E00498D4
:10FEB000D9000A1806CA009806C06846FDF74AF934
:10FEC0005B1CB342F3D3606C80196064012005B001
:10FED000F0BD0000F82B00200389CA1C9A1802818B
:10FEE0004289511AC91E418170470000F7B50D467D
:10FEF0000121890247180446002608340220288080
:10FF000012E02046FEF7F0FB002817D00C48A1684D
:10FF10004268914200D94160608881000C192988AB
:10FF20000818C01C28800C34BC4202D22068401C37
:10FF3000E7D10298002800D00670FEBD0126EBE74D
:10FF40002021002008B50021009101460223024A29
:10FF50000248FDF75DFF08BDF82B02006821002074
:10FF600008B500200090044802230168034A0448B1
:10FF7000FDF74EFF08BD000030210020F02B0200ED
:10FF800068210020F8B50025354F2C462E460095F7
:10FF90003448B102006840180168B94205D1324ABC
:10FFA0004168891830D001290CD000218A0082587C
:10FFB0000346521C36D003202C4922018854641C6D
:10FFC000A4B21BE0009900290CD0284B0222210189
:10FFD0005A54274A1368254A891802224B60641C28
:10FFE0000A81A4B2224900220860091DFFF77EFFA2
:10FFF0001F488088022831D008200543761CB6B2FD
:020000040002F8
:10000000032EC5D3E8B2F8BD1849002322018B5452
:1000100051180A4648600E320831FFF767FF022088
:100020000543CCE7491CFF29C0D911490A68002AB9
:100030000CD00E4A02212301D1549A1850600B486B
:10004000118120304480641CA4B204E002200B60C3
:1000500088800120009001200543CFE70420CCE7F1
:10006000DEC0ADDE6821002002FEE10EB82C0020CB
:100070003021002070B5184D0E46044623CD86B0C1
:100080000295009001916846448082808371134DEF
:100090002046A978FCF7FAFB002803D03046FEF78B
:1000A00071FC0FE00721304600F0C6F9002809D0A6
:1000B000052807D1092269460A73CC81049003A858
:1000C000FDF786FB002229782046FCF7F1FB684605
:1000D000FDF77EFB06B070BD882B02009820002043
:1000E000F0B585B00746FCF7C5FB002814D068467C
:1000F000FCF7F4FA00246D460BE060004619B08866
:100100003946FCF7C3FB002802D0B08801F03EFF5F
:10011000641C0098A042F0D805B0F0BD70B5054D44
:1001200006460024A000295830468847641C052C48
:10013000F8D370BD482B02003EB50F4D00241420AB
:100140006043401902F078FB641C082CF7D30821A7
:10015000502001910A490124C2000290074B0094EB
:10016000881800F0DCFC002801D003203EBD0348C5
:10017000447000203EBD0000DC27002080200020CD
:100180004C25002010B500F043FA10BD10B500F06A
:1001900043FA10BDF0B5002585B000950195029594
:1001A00003950446418868464180217901712E46B5
:1001B0002179608802F01AFB22780421404F130055
:1001C000FBF7C0FA0A0606361C1C383E43484B4D66
:1001D00000280DD0417CC9070AD002F03FFB6846D9
:1001E00006702078012800D00020694608722AE0B5
:1001F000012069460870A068029024E000280ED013
:100200008268A3689A420AD1427CD30707D07B68F0
:1002100052085B1C52000A437B6042741FE00220BC
:1002200069460870E06803900DE0FFF777FF16E07D
:10023000032006E068460170E06802906846F4E733
:100240000520694608700846EFE7062069460870F1
:10025000E068D1E701250720F3E7E06802907868BD
:10026000002824D0174E0024142027464743B819ED
:10027000417C4A0703D48907C90F29421CD08178E1
:10028000F05B00F0EFF8002816D014214C43325BED
:1002900069464A80B9198A7869460A71862808D061
:1002A00009216A46117002906846FFF737FF05B0D2
:1002B000F0BD08200870F7E7641C082CD4D3F6E7DB
:1002C00080200020DC27002010B500F06BFA10BD64
:1002D00010B5002300F0D6F910BD38B5054600244E
:1002E00020460AE08178284600F0A6F8002802D0CF
:1002F000052800D003240098401C00906946284639
:1003000002F086FA0028EDD1002C07D1284600F033
:1003100051FA002802D0072802D00324204638BD15
:100320000724FBE710B51346002200F0E3F910BDE7
:10033000FFB581B0049815460E46002804D0072E5C
:1003400005D0082E19D102E00E2005B0F0BD002D19
:1003500013D0082D11D8019800F037FA00280CD0DE
:10036000002000903146019802F040FA041E26D089
:10037000E068A84212D2002709E00720E5E7207CC8
:10038000C019C1B22A4800F002FC7F1CFFB2E0682D
:10039000B842F4D8204602F04FFA10E0A84217D92C
:1003A000EFB207E0207CC019C1B2214800F0EFFB9A
:1003B0007F1CFFB2E068B842F4D8002C08D1FF21BE
:1003C0001C48019F02F012FA041E05D00780A67097
:1003D000207CFF2802D00AE01120B6E72946144805
:1003E00000F06EFB2074FF2813D001200090E56020
:1003F000217C0F4800F0B4FB02000ED0ABB23146B6
:10040000049800F073FA009800280FD0082E06D048
:100410000CE0204602F010FADEE7032095E704988E
:100420000499008849688000801F888000208CE73C
:10043000CC270020FFFF000070B5002402F0D6F9A1
:1004400005000CD06868002804D000F0DAF9040038
:1004500000D00324284602F001FA204670BD052092
:1004600070BD00007CB50D460646072903D0082D57
:1004700001D007207CBD0020009001906846857067
:100480002946304602F0B2F9040004D0607CC0076F
:1004900003D000207CBD05207CBD217C214800F0DC
:1004A0005FFB020025D029466846E36800F0B1F9F9
:1004B000684602F089F92346083369463046626887
:1004C00000F018F90246607C1749430704D58307FA
:1004D00002D54B685B1E4B60FB25FD23002A0AD02A
:1004E000112A0DD0862A14D0072A00D003221046E4
:1004F0007CBD03207CBD01210843284018400EE04C
:100500004A68521C4A600421084318406074002263
:10051000EDE74B6828405B1C4B6002210843607488
:10052000E5E70000CC270020802000207CB50D46A8
:10053000072903D0082D01D007207CBD002602F03A
:1005400055F9040003D06068002802D01BE00520A4
:100550007CBD217C0E4800F003FB02460020009089
:10056000019068468570002A0FD02946E36800F0A4
:1005700050F9684602F028F9211D684600F029F973
:100580000646092801D030467CBD03207CBD000012
:10059000CC2700200149096808470000442B0200CD
:1005A00070B588B01748FDF7C1FA002802D00320C3
:1005B00008B070BDFDF7F8F9002801D08620F7E7F4
:1005C00000F0EAF90020104C0290E61F03900DE0C5
:1005D000694604A8FDF76EFA00988088801B85B2F2
:1005E00004A8FDF725FA284600F08AF902AA04A912
:1005F0002046FDF744FA0028EAD00449012008709B
:100600000020D5E7F9D7010007C0000074200020C2
:1006100010B500F09FF910BD10B500F0A3F910BDA2
:1006200070B505460320800386B014460E46281890
:1006300080B20F4A6946FDF722FA002805D103A9C6
:100640006846FDF737FA002802D0002006B070BDDA
:10065000A570039840882080049860600398808883
:10066000FDF7C7FA30806846FDF7E2F90120EDE7B3
:10067000782000200248002141608160704700001E
:1006800074200020F0B587B01D46144607460E467C
:10069000FF280CD8084600F019F9002807D003AA53
:1006A0003146384600F0FAF8002809D102E0072068
:1006B00007B0F0BD01A903A8FDF7FCF9002801D09F
:1006C0000520F5E7A6700198002D408820800AD00B
:1006D00082002868904204D802996068FAF72CFDDD
:1006E00003E00420E4E70298606003A8FDF7A0F9A6
:1006F0000020DDE77FB588B01D460C460646FF2882
:1007000034D8A07800F0E2F800282FD06068069076
:10071000208869468883304600F078F96946088069
:10072000A0780321890340186946488006A80190F3
:1007300001200881A17803AA304600F0AFF805280F
:100740000A9815D0002802D00AA8FDF71BFA6946BE
:1007500003A8FDF7D1F9002817D007281FD00828D3
:100760001BD00E2819D003200CB070BD0720FBE76A
:10077000002805D00AAA694603A8FDF7CDF9EAE7E3
:10078000694603A8FDF7C2F9E5E7002D03D0294625
:1007900003A8FDF784F90020E6E71120E4E78620AE
:1007A000E2E7000010B5024800F0AAF810BD000012
:1007B000FFFF000010B5FF2801D9072010BD00F091
:1007C000A7F800F02BF8002010BD10B500F0F8F8E5
:1007D00010BD70B504460D46807800F077F800280B
:1007E0000BD021882846FDF7B3F9002804D007284C
:1007F00005D0092800D0032070BD072070BD8620D9
:1008000070BD01B56846FDF7BDF9002800D0032092
:1008100008BD10B59BB200F069F810BDF0B589B005
:1008200000261C4F04963846059603E0204600F04B
:1008300083F8204600F08EF80446B84207D000F056
:10084000E5F804AA06A9FDF722F90A28EED0124D10
:10085000A878002819D1BC4217D0032080030127B3
:100860002018AF7080B2FDF755F808280FD0002887
:100870000BD0AE70092269460A704C80FF220A71C3
:10088000039002966846FFF785FE09B0F0BD6F70D1
:10089000FBE70000FFFF0000742000207CB5054648
:1008A00016460C46084600F011F80020032100907F
:1008B000890301906818611880B289B26B4632468C
:1008C000FDF7D6F8002800D005207CBD07280BD006
:1008D000012809D0082807D0052805D0062803D00C
:1008E000042801D0002070470120704710B5502423
:1008F00063439BB28170DB1C99084260018010BD8C
:1009000010B50249FCF732FC10BD00007C28002025
:1009100010B504460648844207D006492046FCF735
:1009200025FCA04201D1012010BD002010BD000017
:10093000FFFF00009C28002010B50446044900F089
:1009400009FE03492046203100F004FE10BD0000DE
:100950007C28002010B50249FEF7D0FD10BD000034
:100960009C28002070B50A49FEF7C8FD0446094DD1
:1009700008E000F031F8002807D005492046FEF7CE
:10098000BDFD0446AC42F4D170BD204670BD0000F0
:100990007C280020FFFF000010B508484021FAF72E
:1009A000E4FBFF2401342146044800F0DFF903484A
:1009B0002146203000F0DAF910BD00007C2800202C
:1009C00010B5FF2804D80146024800F0FFF910BD19
:1009D000002010BD7C28002010B5FF2804D8014657
:1009E000024800F0F3F910BD002010BD9C28002043
:1009F00010B50C46FDF732FDFF2803D00C2148430B
:100A000001490C5210BD0000DC24002003218903A1
:100A1000401880B2704700001CB5044600F064F92D
:100A2000002801D0FBF706FA002C05D000F0B2FA3E
:100A3000002801D0FBF7FEF90020009001906846E5
:100A40000078012210438121084030304106490ED0
:100A5000684601700721417010218170C17802231E
:100A600011431943C170017911431943017100F019
:100A7000C7FA002801D0FBF7DDF9044800F0A8FA16
:100A8000002801D0FBF7D6F91CBD0000C10B020005
:100A90000449081820214156042901DB0120704730
:100AA000002070471C2900200449081820214156C5
:100AB000042901D201207047002070471C29002022
:100AC000F8B50F46060028D03068002825D0706899
